{
  "transactions": [
    {
      "hash": "0xd7b8c6bf92c2e3b0d37d66f3b4b6594bf43472fd1b434f6875508ddaa26fdd0e",
      "transactionType": "CALL",
      "contractName": null,
      "contractAddress": "0x1C4b56e223760BAF351d317Abe5390ca1de2eB7e",
      "function": null,
      "arguments": null,
      "transaction": {
        "type": "0x00",
        "from": "0x23ca0c2219de2c5a6bf13b66897303c2766f3de5",
        "to": "0x1c4b56e223760baf351d317abe5390ca1de2eb7e",
        "gas": "0xed0e",
        "value": "0x0",
        "data": "0x77061e4d00000000000000000000000018cc97fffbbeee7c6896c7688a3eb984e9281b68",
        "nonce": "0x7"
      },
      "additionalContracts": [],
      "isFixedGasLimit": false
    },
    {
      "hash": "0xa76387b0436f24239afe8a74ff08fad92cc2171b6645f7d12c08ccefdf48bfcf",
      "transactionType": "CALL",
      "contractName": null,
      "contractAddress": "0xc6bF024d5939D7ac31A6a8A0B16E7f5b8A218d05",
      "function": "updateTokenMapping(address,address)",
      "arguments": [
        "0x1C4b56e223760BAF351d317Abe5390ca1de2eB7e",
        "0x18cC97fffBBEEE7C6896c7688A3eB984e9281b68"
      ],
      "transaction": {
        "type": "0x00",
        "from": "0x23ca0c2219de2c5a6bf13b66897303c2766f3de5",
        "to": "0xc6bf024d5939d7ac31a6a8a0b16e7f5b8a218d05",
        "gas": "0x13238",
        "value": "0x0",
        "data": "0xfac752eb0000000000000000000000001c4b56e223760baf351d317abe5390ca1de2eb7e00000000000000000000000018cc97fffbbeee7c6896c7688a3eb984e9281b68",
        "nonce": "0x8"
      },
      "additionalContracts": [],
      "isFixedGasLimit": false
    }
  ],
  "receipts": [
    {
      "transactionHash": "0xd7b8c6bf92c2e3b0d37d66f3b4b6594bf43472fd1b434f6875508ddaa26fdd0e",
      "transactionIndex": "0x0",
      "blockHash": "0x585930f0c1c48476f3b77ca3c776452eeddb1da88136b72213ea7eec892b458e",
      "blockNumber": "0x29e183",
      "from": "0x23CA0c2219de2C5A6bf13B66897303c2766f3DE5",
      "to": "0x1C4b56e223760BAF351d317Abe5390ca1de2eB7e",
      "cumulativeGasUsed": "0xaba0",
      "gasUsed": "0xaba0",
      "contractAddress": null,
      "logs": [],
      "status": "0x1",
      "logsBloom": "0x00000000000000000000000000000000000000000000000000000000000000000000000000000000000000000000000000000000000000000000000000000000000000000000000000000000000000000000000000000000000000000000000000000000000000000000000000000000000000000000000000000000000000000000000000000000000000000000000000000000000000000000000000000000000000000000000000000000000000000000000000000000000000000000000000000000000000000000000000000000000000000000000000000000000000000000000000000000000000000000000000000000000000000000000000000000",
      "type": "0x0",
      "effectiveGasPrice": "0x3b9aca00"
    },
    {
      "transactionHash": "0xa76387b0436f24239afe8a74ff08fad92cc2171b6645f7d12c08ccefdf48bfcf",
      "transactionIndex": "0x1",
      "blockHash": "0x585930f0c1c48476f3b77ca3c776452eeddb1da88136b72213ea7eec892b458e",
      "blockNumber": "0x29e183",
      "from": "0x23CA0c2219de2C5A6bf13B66897303c2766f3DE5",
      "to": "0xc6bF024d5939D7ac31A6a8A0B16E7f5b8A218d05",
      "cumulativeGasUsed": "0x17d02",
      "gasUsed": "0xd162",
      "contractAddress": null,
      "logs": [
        {
          "address": "0xc6bF024d5939D7ac31A6a8A0B16E7f5b8A218d05",
          "topics": [
            "0x2069a26c43c36ffaabe0c2d19bf65e55dd03abecdc449f5cc9663491e97f709d",
            "0x0000000000000000000000001c4b56e223760baf351d317abe5390ca1de2eb7e",
            "0x0000000000000000000000000000000000000000000000000000000000000000",
            "0x00000000000000000000000018cc97fffbbeee7c6896c7688a3eb984e9281b68"
          ],
          "data": "0x",
          "blockHash": "0x585930f0c1c48476f3b77ca3c776452eeddb1da88136b72213ea7eec892b458e",
          "blockNumber": "0x29e183",
          "transactionHash": "0xa76387b0436f24239afe8a74ff08fad92cc2171b6645f7d12c08ccefdf48bfcf",
          "transactionIndex": "0x1",
          "logIndex": "0x0",
          "removed": false
        }
      ],
      "status": "0x1",
      "logsBloom": "0x00000000000004000000000000000000000000000000000010000000040000000000000000000000000000000000000000000000000000000000000000000000000000000000000000000000000000000000000000000000000000000000000040000000020020000000000000000800000800000000000000000000000000000000000000000000000000000000000000000000002000000000000000000000000000000000000000000000000000000000000000000000000001000000000000000000000000000000000000000000000000000001000000000000000020000000408000000000000000000000000020000000000000000000000000000000",
      "type": "0x0",
      "effectiveGasPrice": "0x3b9aca00"
    }
  ],
  "libraries": [],
  "pending": [],
  "returns": {},
  "timestamp": 1704510877,
  "chain": 534351,
  "multi": false,
  "commit": "dc03728"
}