{
  "transactions": [
    {
      "hash": "0xf861cb8a47845632a79886b6a29a8e4b06ae94936bad1e611594b7d7570b8cea",
      "transactionType": "CALL",
      "contractName": null,
      "contractAddress": "0x8CF45fF2c7124A3bA046eA768e204617fD487cEA",
      "function": "initialize(address,address)",
      "arguments": [
        "0xc6bF024d5939D7ac31A6a8A0B16E7f5b8A218d05",
        "0x50c7d3e7f7c656493D1D76aaa1a836CedfCBB16A"
      ],
      "transaction": {
        "type": "0x02",
        "from": "0x23ca0c2219de2c5a6bf13b66897303c2766f3de5",
        "to": "0x8cf45ff2c7124a3ba046ea768e204617fd487cea",
        "gas": "0x32c9c",
        "value": "0x0",
        "data": "0x485cc955000000000000000000000000c6bf024d5939d7ac31a6a8a0b16e7f5b8a218d0500000000000000000000000050c7d3e7f7c656493d1d76aaa1a836cedfcbb16a",
        "nonce": "0x93",
        "accessList": []
      },
      "additionalContracts": [],
      "isFixedGasLimit": false
    }
  ],
  "receipts": [
    {
      "transactionHash": "0xf861cb8a47845632a79886b6a29a8e4b06ae94936bad1e611594b7d7570b8cea",
      "transactionIndex": "0x47",
      "blockHash": "0x0c0e21a7afad951fd177b296156bc64ad0f14460a07a745b23bcf40d5db5712d",
      "blockNumber": "0x4cc2ee",
      "from": "0x23CA0c2219de2C5A6bf13B66897303c2766f3DE5",
      "to": "0x8CF45fF2c7124A3bA046eA768e204617fD487cEA",
      "cumulativeGasUsed": "0x128ffd2",
      "gasUsed": "0x22ba2",
      "contractAddress": null,
      "logs": [
        {
          "address": "0x8CF45fF2c7124A3bA046eA768e204617fD487cEA",
          "topics": [
            "0x8be0079c531659141344cd1fd0a4f28419497f9722a3daafe3b4186f6b6457e0",
            "0x0000000000000000000000000000000000000000000000000000000000000000",
            "0x00000000000000000000000023ca0c2219de2c5a6bf13b66897303c2766f3de5"
          ],
          "data": "0x",
          "blockHash": "0x0c0e21a7afad951fd177b296156bc64ad0f14460a07a745b23bcf40d5db5712d",
          "blockNumber": "0x4cc2ee",
          "transactionHash": "0xf861cb8a47845632a79886b6a29a8e4b06ae94936bad1e611594b7d7570b8cea",
          "transactionIndex": "0x47",
          "logIndex": "0x45",
          "removed": false
        },
        {
          "address": "0x8CF45fF2c7124A3bA046eA768e204617fD487cEA",
          "topics": [
            "0x7f26b83ff96e1f2b6a682f133852f6798a09c465da95921460cefb3847402498"
          ],
          "data": "0x0000000000000000000000000000000000000000000000000000000000000001",
          "blockHash": "0x0c0e21a7afad951fd177b296156bc64ad0f14460a07a745b23bcf40d5db5712d",
          "blockNumber": "0x4cc2ee",
          "transactionHash": "0xf861cb8a47845632a79886b6a29a8e4b06ae94936bad1e611594b7d7570b8cea",
          "transactionIndex": "0x47",
          "logIndex": "0x46",
          "removed": false
        }
      ],
      "status": "0x1",
      "logsBloom": "0x00100000040000000000000000000000000000000000000000800000000000000002000000000000000000000000000000000000000000000000000000000000000000000000000000000000000000000001000000010000000000000000000000000000020000000000000000000800000000000000000000000000000000400000000000000000000000000000000000000000000080000000000000000000000000000000100000000000000400000000000000000000000000000000000000000000000000000000000000040200000000000000000000000000000020000000000000000000000000000000000000000000000000000000000000000000",
      "type": "0x2",
      "effectiveGasPrice": "0x548703573"
    }
  ],
  "libraries": [],
  "pending": [],
  "returns": {},
  "timestamp": 1704509369,
  "chain": 11155111,
  "multi": false,
  "commit": "dc03728"
}